:020000040800F2
:10100000003C0020354700087D47000825550008B2
:10101000295500082D550008315500080000000032
:10102000000000000000000000000000355500082E
:1010300039550008000000003D55000841550008E2
:101040007D4700087D4700087D4700087D47000870
:101050007D4700087D4700087D470008BD56000811
:1010600000000000455500087D4700086D55000848
:10107000195600087D4700087D4700080000000061
:10108000995600087D4700080000000061560008DE
:1010900081560008715600087D4700087D4700080A
:1010A0007D4700087D4700087D47000895560008E9
:1010B0007D47000800000000000000000000000064
:0C10C0007D470008000000007D4700088C
:1010CC0010B5054C237833B9044B13B10448AFF376
:1010DC0000800123237010BDC80300200000000015
:1010EC0068650008084B10B51BB108490848AFF3F8
:1010FC0000800848036803B910BD074B002BFBD0D8
:10110C00BDE81040184700BF00000000CC030020D1
:10111C0068650008C80300200000000053B94AB9F4
:10112C00002908BF00281CBF4FF0FF314FF0FF30E3
:10113C0000F07EB9ADF1080C6DE904CE00F006F8B4
:10114C00DDF804E0DDE9022304B070472DE9F04737
:10115C008C460E460446089D002B50D18A421746F9
:10116C006CD9B2FA82FEBEF1000F0BD0CEF1200486
:10117C0020FA04F401FA0EF644EA060C02FA0EF711
:10118C0000FA0EF44FEA1749220CBCFBF9F01FFAD7
:10119C0087F809FB10C642EA064600FB08F3B34287
:1011AC0009D9F61900F1FF3280F02281B34240F2E6
:1011BC001F8102383E44F61AA2B2B6FBF9F309FBC2
:1011CC00136642EA064403FB08F8A04509D9E41962
:1011DC0003F1FF3280F00A81A04540F20781023B07
:1011EC003C44C8EB040443EA00400021002D62D0CB
:1011FC0024FA0EF400232C606B60BDE8F0878B4260
:10120C0007D9002D55D0002185E841000846BDE8DE
:10121C00F087B3FA83F1002940F09080B34202D3F7
:10122C00824200F2F880841A66EB03060120B44671
:10123C00002D40D085E81010BDE8F08712B90127C9
:10124C00B7FBF2F7B7FA87FEBEF1000F35D1F31BEF
:10125C004FEA17481FFA87FC0121B3FBF8F0220C68
:10126C0008FB103642EA06460CFB00F3B34207D9E2
:10127C00F61900F1FF3202D2B34200F2CE801046D2
:10128C00F61AA2B2B6FBF8F308FB136642EA064460
:10129C000CFB03FCA44507D9E41903F1FF3202D27D
:1012AC00A44500F2B5801346CCEB040443EA00409D
:1012BC009CE729462846BDE8F087CEF1200106FAC6
:1012CC000EF307FA0EF720FA01F94FEA1748CE4051
:1012DC0049EA0309B6FBF8FA4FEA194408FB1A6607
:1012EC001FFA87FC44EA06430AFB0CF29A4200FA06
:1012FC000EF40AD9DB190AF1FF3180F087809A428B
:10130C0040F28480AAF1020A3B449B1A1FFA89F925
:10131C00B3FBF8F108FB113349EA034301FB0CF66C
:10132C009E4207D9DB1901F1FF326BD29E4269D97B
:10133C0002393B449B1B41EA0A418EE7C1F1200E66
:10134C0022FA0EF48B40234320FA0EF706FA01F42E
:10135C004FEA134C26FA0EF63C43B6FBFCF9270C6D
:10136C000CFB19661FFA83F847EA064609FB08F7D7
:10137C00B74202FA01F200FA01FA08D9F61809F19B
:10138C00FF3041D2B7423FD9A9F102091E44F61BE6
:10139C00A0B2B6FBFCF40CFB146640EA064704FB57
:1013AC0008F8B84507D9FF1804F1FF3028D2B84522
:1013BC0026D9023C1F4444EA0940C8EB0707A0FBAE
:1013CC0002894F4544464E4614D329D065B3BAEB37
:1013DC00040367EB060707FA0EFECB40CF404EEA3C
:1013EC00030385E888000021BDE8F0871346F8E682
:1013FC001046E0E6B8EB020469EB03060138E5E7BA
:10140C000446D8E7114695E78146C0E78A467CE753
:10141C00023B3C4448E708460AE702383E442FE7C3
:10142C00C245E7D33E46D1E72946BDE8F08700BF69
:10143C00704700BF994B9A4A2DE9F04FB3F87CB036
:10144C00B3F800E01088974D974CCEEB0B0189B2A6
:10145C004A0988428BB02980228080F01C819348F5
:10146C000088884240F21781DE68586919699D68C6
:10147C005F68751B461A9969D8690095401A596AB4
:10148C0001908C46196A186C1D6DC1EB0C0AD96A57
:10149C008C46996AC1EB0C09596B8C46196BC1EBE4
:1014AC000C08D96B8C46996BC1EB0C0C596CCEEBC0
:1014BC00070E081A9F6CD96CCF1B596D491BBDF8D0
:1014CC0000500095BDF8045001951FFA8EFE009D4A
:1014DC007245B6B22CBF4FF0000E4FF0010EAA426F
:1014EC00019DCDF824E02CBF4FF0000E4FF0010E03
:1014FC00B2421FFA8AFA2CBF00260126AA421FFA12
:10150C0089F92CBF0025012552451FFA88F82CBFFC
:10151C004FF0000A4FF0010A4A451FFA8CFC2CBF11
:10152C004FF000094FF00109424580B22CBF4FF03B
:10153C0000084FF0010862452CBF4FF0000C4FF033
:10154C00010CBFB282422CBF00200120BA42069689
:10155C000595CDF810A0654602902CBF00250125FD
:10156C0089B20195029860628A420198A0622CBFF0
:10157C00002101214E4800910025058000989D6EA8
:10158C00E062D86E069EE660451B059E2661C4F897
:10159C0014A01E6ED86DCDF81CC01FFA85FA5D6EB6
:1015AC00C4F820C0AE1B019D0999CDF80C8067468C
:1015BC0089EA0E0CC4F81C8085EA0C0C8046049D4C
:1015CC00986DCDF820906160C4F81890C0EB0808B5
:1015DC0085EA0109C4F808E09D6F0298059989EA2B
:1015EC0000094FEA8C0C52451FFA88F84CEAC90CDA
:1015FC00D3F874901B6F0398B6B22CBF4FF0000A4F
:10160C004FF0010AC5EB0B054245ADB22CBF4FF0B4
:10161C0000084FF00108C3EB0903B2422CBF0026AF
:10162C00012687EA010BAA429BB20699C4F838A09E
:10163C002CBF002501259A421E4BC4F830804FEA7E
:10164C008A0A88EA0B0880EA010B00991B7825644A
:10165C004AEAC60A4AEA050A2CBF002201224CEAD1
:10166C00080C81EA0B0B66634CEA4B084AEA420A07
:10167C00E263114D002B3FD12B781BB3CAF10F0A3B
:10168C005FFA8AFAC2453CD00C4A0D4913880020F7
:10169C000133138008700BB0BDE8F08F7805002083
:1016AC006C05002080060020E4030020C00300200D
:1016BC0030050020140500203A050020900600207B
:1016CC008206002003F018FF00287DD123690593C2
:1016DC00E368069363680993E36A0093A36908932C
:1016EC0063690493E3690393236A0793636A029320
:1016FC00D4F808E0A36A01932B78002BBED1C24525
:10170C00C2D1984A256B138801331380964A002363
:10171C00012D138008BF954B954A08BF1D70099B7E
:10172C004FEA4E2E4EEA832E009B4EEA0301069B97
:10173C0041EA032B059B02994BEAC31B049B4BEA22
:10174C00831A089B4AEA4319039B49EA0318079B2F
:10175C0048EAC30C4CEA81001378019940EA41072E
:10176C0083B1012B5ED0022B73D0032B93D1252F89
:10177C0091D1804B80481B8880490078C854002345
:10178C00137088E72F2F41DC7B1E2E2B4FD87C4DFE
:10179C007C4BFFB200212F7019807B4B1B78002BE8
:1017AC007FF479AF794B1B78002B3FF474AF94F82E
:1017BC0048307749BB4251D0052F81F8487058D931
:1017CC00012381F8463066E794F844300133DBB2EC
:1017DC00642B84F844307FF679AF01232B70236996
:1017EC000593E368069363680993E36A0093A3691E
:1017FC00089363690493E3690393236A0793636A09
:10180C000293A36AD4F808E0019337E794F84510E3
:10181C005F480029B8D05B49594A80F846300F80A0
:10182C00137038E7534902230F80137033E7002FEE
:10183C0040F0CB8094F84730554A5249012B08BFF1
:10184C0082F845704E4A00230B8084F846301370A2
:10185C0021E7494903230F7013701CE7052F08D9A2
:10186C0091F846300133DBB2052B81F846307FF618
:10187C0012AF00217B1E84F84610232B16D8DFE80C
:10188C0003F0959F9A6B666159514C47153E302871
:10189C001515151515201A151515151515151515DC
:1018AC0015151515151201232F781370394A0023BD
:1018BC0017702B70EFE6314A374B527C1A702F7829
:1018CC00F4E72E4B344A5B7C2F78C3F10103137081
:1018DC00ECE7324A2F7801210023117084F849304B
:1018EC00E4E794F847302E4829492F780122934297
:1018FC00027084F8492008BF81F84530D6E700F023
:10190C0035FC1E4B274A5B7C2F7801331370CDE7D7
:10191C001A4B2F7801229A74C8E7184B2F780022A3
:10192C009A74C3E715491C4B2F7801200022487488
:10193C001A70BBE71149184B2F780020012248740C
:10194C001A70B3E7184B2F7801221A70AEE7154BBB
:10195C002F7805221A70A9E7124B2F7804221A70DF
:10196C00A4E700BF92060020300500202C050020C3
:10197C00820600207E0600208806002074070020C6
:10198C00E5060020FE040020FC04002014050020C5
:10199C00E4030020460500205400002089060020A6
:1019AC007C06002015050020DA0600200A4B2F7853
:1019BC0001221A707AE7084B2F7803221A7075E708
:1019CC00054B2F7802221A7070E7044D2F78002FE8
:1019DC007FF4E3AE5FE600BF15050020E5060020AE
:1019EC00F0B47C4E96F84930002B7AD100237A4A19
:1019FC001178002931D079490B7800201070002B18
:101A0C0000F099800023764C0B704EF6F172012396
:101A1C0086F85230734B74481F78744D06EB87036D
:101A2C008021D96572492A6000EB87000C60802305
:101A3C0004301321012505FA01F22240CA4082EA42
:101A4C00D3130139DB014A1C40F8043FF3D106EBF8
:101A5C0087060023B365F0BC704760490A78002AFA
:101A6C00D0D1002B40F09780624B1B78002B66D0B6
:101A7C00C30B024640F0AC808313012B7FD0431381
:101A8C00012B7ED00313012B00F08180C312012B9C
:101A9C0079D08312012B78D04012012879D0002103
:101AAC000B4671650A411A4393B219094B4083EAFC
:101ABC001113DB4303F00F0343EA02124E481313D6
:101ACC0002F00F01C2F30324415CC35C045DC2F35A
:101ADC00031541EAC333415D43EA842343EA4114CD
:101AEC0098E796F8524024B1002286F8522013460B
:101AFC007DE7B6F85030B6F84E20B6F84C100133EE
:101B0C009BB20132013192B289B2272BA6F8503028
:101B1C00A6F84E20A6F84C1018D8C72A25D9374B52
:101B2C00374A1B88A6F84E40A2FB0323C3F3C70316
:101B3C0043F480635BE7334C4EF2010267E74FF6E8
:101B4C00FF720F21083971654B02ABE72E4B2C4A03
:101B5C00B3F90030A6F8504082FB0312DB17C3EB3D
:101B6C002213DBB243F4C06341E7C7297FF63EAFD3
:101B7C00264BA6F84C401B7843F4007337E70E2134
:101B8C00E0E70D21DEE70B21DCE70A21DAE70C2187
:101B9C00D8E70921D6E7190983EA010282EA111272
:101BAC00D24302F00F0242EA03121348131302F05D
:101BBC000F01C2F30324415CC35C045DC2F3031543
:101BCC0041EAC333415D43EA842343EA41141EE7EF
:101BDC000F21B7E7E40300207C06002089060020D3
:101BEC00FB3D0700C30300203C04002084060020BA
:101BFC008C060020FC04002080650008D006002024
:101C0C001F85EB513B6707002E050020E8060020DE
:101C1C0030B4904219DA884201DD8A4202DA184661
:101C2C0030BC7047029C55189C421C444FEA650519
:101C3C004FEA640409D08D4209D0A84202DD691C28
:101C4C002346E6E702942A46E3E70298E8E72046B3
:101C5C00E6E700BF401A0028B8BF4042704700BFFB
:101C6C00044A516A80B289B2536A5B1A9BB2984299
:101C7C00FAD870470048014010F1FF3006490AD3EA
:101C8C004A6A92B24B6A9B1A9BB2B3F57A7FF9D32C
:101C9C0010F1FF30F4D2704700480140002954D0B5
:101CAC00013930B450FA81F5441E002014F8013F7C
:101CBC005840410081F0070310F0800FDBB2C9B22D
:101CCC0018BF19464A0082F0070311F0800FDBB2EF
:101CDC00D2B218BF1A46510081F0070312F0800FE0
:101CEC00DBB2C9B218BF19464A0082F0070311F0E3
:101CFC00800FDBB2D2B218BF1A46510081F0070335
:101D0C0012F0800FDBB2C9B218BF19464A0082F03C
:101D1C00070311F0800FDBB2D2B218BF1A46510084
:101D2C0081F0070312F0800FDAB2CBB218BF134662
:101D3C005A0082F0070013F0800FC3B2D0B218BF64
:101D4C001846A542B2D130BC70470846704700BF58
:101D5C0003FB03F3026810B403EB430401FB03F130
:101D6C0022EA04030B43036010BC704703FB03F32C
:101D7C0030B4056803EB4304E44301FB03F1254055
:101D8C0029430160C16802FB03F204EA0103134317
:101D9C00C36030BC704700BFF8B50C4CBDF8185090
:101DAC0020704FEA122E080A1F0A2E0A6070A170CA
:101DBC0020462271092184F803E0A3716771257212
:101DCC00E671FFF76BFF6072F8BD00BF9406002050
:101DDC00F8B50B4C0B4F04F1300E3E462068616891
:101DEC00A268E36835460FC5103474452E46F5D10C
:101DFC0030210448FFF752FF87F83000F8BD00BFD0
:101E0C007407002094060020BFF34F8F0549064B42
:101E1C00CA6802F4E0621343CB60BFF34F8F00BF7C
:101E2C00FDE700BF00ED00E00400FA05F0B5BA4C88
:101E3C00BA4D83B029682046C02203F0E7FC6378D2
:101E4C00022B10D800236422A02601200A216671DF
:101E5C00A071E371A37223736373A373E37323748D
:101E6C0021726272E272E37D2A2B65D81A1F052A51
:101E7C0062D9032B07D8DB00DAB2A94902F10A03B5
:101E8C00DBB20A70E3750A3BDBB2202B9CBFA44A81
:101E9C001370237EA3F10802D2B2882A00F2D780F5
:101EAC0003EB830303EB83039E4A9F489F499B00EC
:101EBC0082FB0362A2EBE37391FBF3F3AB80C3628F
:101ECC00A3795A1E312A00F2BE8003EB83035B0018
:101EDC0003F5C87189B2627E2B81A2F132006428AD
:101EEC0098BF9B18A27EA98102EB82024FEAC20224
:101EFC0098BF9BB2143202206B81EA8102F02AFA5D
:101F0C0063788649844ADBB9C8894FF4FA73009325
:101F1C0040F6B8324FF47A734FF49671FFF778FEAF
:101F2C00A37CA5F85000002B40F0CB80804B4FF4E5
:101F3C00FA621A6003B0F0BD794A1021117098E76B
:101F4C00907F0B2888BF052002F004FA94F821300A
:101F5C0094F8281094F8202094F8226094F8250026
:101F6C0094F82370AF7503F26B335B0002F27712B7
:101F7C000539520014296B82674B2A8284BF0522D3
:101F8C0083F8282094F82930634A013B06F25E5608
:101F9C00FA300027092BAE82288384F8277002D9E7
:101FAC000A2382F8293094F82A305B495A1E082AF1
:101FBC0053D8C3EB4312C3EB8203DFF86CE16F8998
:101FCC00DEF844C02E89A88BA9895B002E3BDBB2BE
:101FDC009AB2AB7617441644104443EA0C030A44F5
:101FEC00CEF844306F812E81A883AA8194F82B30CF
:101FFC00494A463B462B84BFFF2382F82B3094F88A
:10200C002C30013B622B02D84A4B01221A7094F8F7
:10201C002D30E27A617AA07AA862013B5200092B3A
:10202C00EA623D4A84BF052382F82D3094F82E30A5
:10203C004900092B696214D8042B19D8DFE803F086
:10204C00118C881863004FF4C871002343E7364A9B
:10205C0041F28733D362EB8032E70A2381F82A30CE
:10206C00C4E7344B3449002201205A709A7008702E
:10207C006379324A092B2AD80921117085F8483026
:10208C0085F8493085F84A30E889244B2C49E67E9E
:10209C00B0F5967F3CBF002283F84B20294AA1FB68
:1020AC000031A2FB003249092023D20893FBF6F33E
:1020BC0091FBF3F192FBF3F3A5F84C10A5F84E301D
:1020CC0023E71B4B4FF47A721A6003B0F0BD1E4924
:1020DC00124E0020107095F84820A1FB0313DB086A
:1020EC00934238BF86F8483095F849200B49934203
:1020FC0038BF81F8493095F84A200849934238BFD7
:10210C0081F84A30C0E7114E0A480B4A01230021DE
:10211C00337043701170ABE774070020000000208F
:10212C0060070020ABAAAA2A002C0140F0821E00F6
:10213C00EC060020D404002029040020E406002032
:10214C001F85EB51ABAAAAAACDCCCCCC2B0400207A
:10215C00044B01229A708BE70249034A01234B700E
:10216C00137085E7D404002029040020024B034897
:10217C001A68C02103F0F4BA000000207407002094
:10218C0038B5284C94F85430012B3AD094F855308B
:10219C00013B13F0FF0323D003F00102224D84F81E
:1021AC00553082F0010384F8523072B6AB7B1BB30E
:1021BC0062B603F0ABFA1D4B2A691B681C49A06D73
:1021CC0003F5FA7393423CBF012384F8563094F81C
:1021DC005530002205EB43030A702A75D88238BDAE
:1021EC00114D012306226B7384F8552084F852306C
:1021FC0072B6AB7B002BDBD194F8550003F02CFEB0
:10220C00D6E794F855200132D2B2062A04D9064DED
:10221C0084F855306B73C6E784F8552002F001033F
:10222C00014DC0E700000020D4040020EC06002083
:10223C00E9060020F8B5434A434CD36894F854108F
:10224C0023F00103D360012994F8553069D0013B88
:10225C0013F0FF034AD003F001023C4D84F85530D3
:10226C0082F0010384F8523072B6AB7B002B53D052
:10227C0062B603F04BFA364B2A691B68A06D354EDB
:10228C0003F5FA739342344A344B17881B8894F83D
:10229C00552096F82F6028BF94F856103B4405EB58
:1022AC00420200EB63032E4FD08238BF01214FF066
:1022BC0000024FEA530338BF84F85610A3653A70F6
:1022CC002A75D6B9274A127803FB02F2C2F38F1291
:1022DC00C2EB5303EB84AA84D9B1234A136842F2AC
:1022EC000F718B429CBF01331360F8BD174D012356
:1022FC0006226B7384F85520B4E71C4A127803FB52
:10230C0002F2C2F38F12C2EB5303EB84AA840029AE
:10231C00E3D103F0F3F9E0E794F8550003F09CFDEA
:10232C00A6E70133DBB2062B07D8084D84F85530ED
:10233C0003F0010184F8521096E7044D84F855100F
:10234C006973F7E70044014000000020D40400202A
:10235C00EC060020740700206E07002062070020A6
:10236C00E90600206007002034080020F006002059
:10237C0070B5164D95F85C307BB100242E4603E009
:10238C0096F85C30A34208DD03F0A4F995F85230BE
:10239C00834204F10104F3D170BD72B603F0A2F9CB
:1023AC000B4A0C4B0C4914880C48C98C1C80446A91
:1023BC000B4B14800131002242625A62D9621A61BD
:1023CC00DA6842F00102DA6062B670BD00000020EB
:1023DC00620700206E070020D4040020001000408B
:1023EC00004401402DE9F043A54DA64CAB7C85B0D3
:1023FC0083B36378002B00F0E180A34E95F8263070
:10240C009F4A002B40F08881638D9E49B3F5836F02
:10241C0080F0EA82A3F1300292B2B2F57A7F12D246
:10242C006A7C96F85400984FC2F10101884200F082
:10243C005F83A3F13002520091B296F85D20C2F195
:10244C002F020A44A2852F2B07D80023A38584F8DA
:10245C00333002E0638D8C4EA38594F8342096F8CB
:10246C005E30884F9A4203D9AB7D002B40F0F78049
:10247C00EF7CDFF80C92002F00F08280A38D814F4F
:10248C001D2B00F2C2800022FA8695F8281001EB71
:10249C00810189008B4280F2C48094F83230794FEC
:1024AC00002B6AD197F84030002B66D0EA7CF88E6E
:1024BC0050232E2113FB0213834280F2C08097F825
:1024CC002830002B00F0B6823389002A00F02382DA
:1024DC004FF4FA620092283340F2FF728921FFF721
:1024EC0097FBA4F8440095F82630654A002B40F081
:1024FC000682D07CE18EA37350222E2312FB003374
:10250C008B4280F29C802E2940F2B2815F4B687F17
:10251C001A681E230341934240F2AA81B4F8443056
:10252C007289584893423CBFA0F844201346B289A4
:10253C009A423CBFA4F844201346B6F89220514866
:10254C009A423CBFA4F844201346227832B1B6F923
:10255C0094209342C4BF93B2A0F84430A26C494873
:10256C00002A0ADD2F2908D9494CD11784FB0242D5
:10257C00C1EB22321344A0F8443005B0BDE8F0831F
:10258C0094F83830DFF8FC80002B53D098F83930B1
:10259C00002B40F00481D8F83C303D49DA1781FB20
:1025AC000313C2EB23339BB2B3F5006FA8F836309C
:1025BC00C0F0BC8140F2FF73E3866EE795F82620ED
:1025CC00314E678D002A65D0B07D400000F57A71E0
:1025DC008F4240F3D081687C96F85420824200F000
:1025EC00AB81A37B002B00F0B681B94208DBA27B48
:1025FC0024490023A3851AB101228B7381F82E2064
:10260C006378002B3FF429AFF8E61E2B3FF43DAF67
:10261C0099F8282002EB8202920093421146C0F2F4
:10262C00B48040F2FF7218460092A023FFF7F0FA34
:10263C00E08632E7B8F82C30A8F836302DE794F85D
:10264C004130002B00F0D380013B042B00F2CC80F6
:10265C00DFE813F0C8001B0218021502C80003F0D3
:10266C00BDFB03F03FF800234FF0660E1A461946E7
:10267C000120FB8687F834E003F0DCFA0DE700BF9D
:10268C0074070020D404002000000020340800202F
:10269C00AD8BDB68B37D5B0003F57A718F4212DD85
:1026AC006B7C96F854209A4200F0F281384640F246
:1026BC00FF7300934FF4FA622F23FFF7A9FAB37D4F
:1026CC00678DA0855B00C3F57A72BA421ADD6B7C0C
:1026DC0096F85400DFF840E3C3F10101884200F0A2
:1026EC00598238462F230093002140F2FF73FFF7E5
:1026FC008FFAB37D678DA0855B00C3F57A72974224
:10270C00FFF67EAF03F57A73BB42FFF679AF002379
:10271C00A38584F8333073E7638DBE49B3F5836FBB
:10272C0013D3507C96F85420BB4F824200F0F881B2
:10273C008A7B52B996F85D206FF40061C2EB4302BC
:10274C000A440021A28584F82E10A3F1300E1FFA42
:10275C008EF2B2F57A7F80F038816A7C96F854005C
:10276C00AD4FC2F10101884200F00482A27B002A25
:10277C007FF473AE96F85D30C3F12F0303EB4E0379
:10278C000022A38584F82E2067E6A021184600912C
:10279C002F231E21FFF73CFABB8DF88675E6726E6F
:1027AC00336EB8F82C0000922F2140F2FF72FFF725
:1027BC002FFAB8F82C1099F81B20984BDFF858E238
:1027CC0093FBF0F02E294FEA520390FBF3F3A8F899
:1027DC003A303FF6E0AEA8F83670CEF86870C8F81C
:1027EC003C705AE601F0FEFE002384F841302B7D4C
:1027FC008B4F002B4BD194F82820A4F84430854BF8
:10280C00002A3AD18748397F0260012286F8562087
:10281C00002940F0FA819B7B6BB397F82630002B94
:10282C003FF4ABAE63787B4F002B00F01E82628DC1
:10283C007848A2F130018BB2B3F57A7F80F0248214
:10284C0096F85D30C3F12F0303EB41039BB2A0F864
:10285C00463040F2CE72934240F2038203F09AFC6F
:10286C00A37B002B7FF489AEE18E2E293FF64EAE72
:10287C00B4F8443061E603F0B1FA95F82630002B39
:10288C00EED0A37B634A002BCCD1D18E3BE694F8DF
:10289C002830604A002B00F0DF80F97C96F8552038
:1028AC00B6F89030013AC2EB021203EB820292B2FC
:1028BC0013B2B3F5B47FA9BFA2F5B4735A4A5A4AFE
:1028CC001BB213809BB203F1770212B2B2F5B47F44
:1028DC0080F292815548028003F1EF0212B2B2F5F8
:1028EC00B47F80F28581524B1A8001294FF000028F
:1028FC0008BF84F83210A37BA4F84420B1E7D77C3E
:10290C00E08E444950222E2312FB07338342BFF63C
:10291C0096AE8B7BA5E74FF4FA6200922F2140F222
:10292C00FF72FFF775F9A4F84400DCE52F2B3FF696
:10293C00B4AD3023E386B0E594F82E00A3854FF0B8
:10294C00010E84F80EE000283FF44FAEC2EB0E02ED
:10295C0086F85420A37340F2FF7338460027009387
:10296C004FF4FA622F2384F82E70FFF751F9B37DE0
:10297C00678DA0855800C0F57A7CBC4522DD6B7C48
:10298C0096F85400244AC3F10101884200F09E805D
:10299C00A37B002B7FF434AE4FF0000E2F2300935B
:1029AC00384640F2FF736246714684F82EE0FFF71A
:1029BC002FF9B37D678DA0855800C0F57A739F42BF
:1029CC00FFF61EAE00F57A710FE62F2B3FF645ADE4
:1029DC00A17B104A0023A38500293FF43EAD0121C1
:1029EC00937382F82E1038E5527C96F854000A4FF7
:1029FC00904200F0A780A3F583614900A3F1300257
:102A0C0088B292B296F85D10C1F12F010144A185F4
:102A1C0003E500BFD40400200000002000879303CE
:102A2C007407002034080020D60600207007002010
:102A3C006C07002003F0D2F996F85630DFF8B48218
:102A4C00002B00F0C2800122738984F82820A4F89E
:102A5C004230EA7CE08E37E5A149387F13730B6076
:102A6C00012386F85630002800F0CB80F97C11B990
:102A7C00984200F017810023A4F844300EE701F0CF
:102A8C0043FDB1E601F00EFEAEE601F0DBFDABE678
:102A9C00B6F85000B26D904280F0C580228EC72AE5
:102AAC0000F2C1808E49C3F10103002701220F609F
:102ABC0086F8543086F8562002F014FEB17D84F866
:102ACC003370490001F57A71608DF0E594F82E00B1
:102ADC00DFF81C8200214FF0010EA18584F80EE076
:102AEC0000283FF48DAD82F8543088F80E1053E76F
:102AFC00B7F85010BB6D994280F0A880238EC72B7D
:102B0C0000F2A480764986F854200123002786F829
:102B1C0056300F6002F0E6FD638D84F8337088E464
:102B2C0091F82EE000204FF0010C888581F80EC042
:102B3C00BEF1000F3FF409AEC2EB0C0287F8542033
:102B4C008873F7E5B7F85000BB6D984260D20B8ED6
:102B5C00C72B5DD862490123C2F10102002786F818
:102B6C00563086F854200F6002F0BCFD638D84F85B
:102B7C00337040E794F82E30DFF874C10021012047
:102B8C00A185A073002B3FF468AC87F854208CF817
:102B9C000E10EFE5BEF85000DEF8581088424CD20B
:102BAC00218EC72949D84E4A86F854300027012374
:102BBC00176086F8563002F095FDB27D84F83370BC
:102BCC005200C2F57A72608D8CE597F8283063B9A3
:102BDC00FFF7D6FA434B41F28831596242F2107238
:102BEC000123C8F8582087F8283002F087FD2AE71F
:102BFC003D4A793B138078E63C4AA3F1F100108002
:102C0C006AE603F0EBF8F97C35E703F0C3FA34E637
:102C1C0094F832303649002B9CD14B854FF6D0724C
:102C2C004FF2D070EEE694F83220314F002A7FF448
:102C3C0039AF4FF47A70788539E594F832102C4F0F
:102C4C000029B0D14FF47A7078854BE594F8323086
:102C5C002749002B7FF456AF4B854FF6A071FFF739
:102C6C00ECBB03F083F8A37BFBE5798D4FF47A7012
:102C7C00FEF7F0FF7A7800F57A7083B2A7F8463049
:102C8C00002A3FF4E6ADD2E5B2F5836F25D396F872
:102C9C005D30C3EB42036FF4006213449BB2A0F8A7
:102CAC004630D6E597F8293003EB830303EB830317
:102CBC00DB009BB240F2CE718B42A2F8463003D9B6
:102CCC0003F068FAF97CD6E60392029003F04EF812
:102CDC00039A02989073F97CCDE6B0F84630B8E5CB
:102CEC0034080020001000406C0700207007002002
:102CFC00D40400200000002010B50E4C94F84C3089
:102D0C00012B0DD0022B03D0BDE81040FFF76ABB9E
:102D1C00094B1888FEF764FE002384F84C3010BD74
:102D2C00FEF788FB002384F84C30BDE81040FFF719
:102D3C0059BB00BFD4040020E00600202DE9F84365
:102D4C004F4C504B94F854101A88002978D101320A
:102D5C0012B24D4DDFF83C91B2F5B47FB8BF1A807A
:102D6C002A88A8BF1980013212B2B2F5B47FA8BF6D
:102D7C0000222A80B9F80020013212B2B2F5B47FD9
:102D8C0079DAA9F80020B3F90020B4F86833A188E7
:102D9C003E4FDFF804813E4E04EB4202B2F998201C
:102DAC001A4401FB02F287FB0230D31798F82D204E
:102DBC00C3EBE01302FB03F386FB0320DB17C3EB2F
:102DCC00A00080B202F014FFB5F90020B4F868330B
:102DDC00A18898F82D5004EB4202B2F998201344C4
:102DEC0001FB03F387FB0312DB17C3EBE21205FBBA
:102DFC0002F286FB0230D217C2EBA00080B202F0C6
:102E0C00FDFEB9F90010B4F86833A58898F82D20A8
:102E1C0004EB4104B4F99810194405FB01F187FB4C
:102E2C000103C917C1EBE31302FB03F386FB032079
:102E3C00DB17C3EBA00080B2BDE8F84302F0E4BEA0
:102E4C00013A12B2002A104DDFF84890B8BF40F298
:102E5C0067121A802A88013A12B2002AB8BF40F2CF
:102E6C0067122A80B9F80020013A12B2002AB8BFC2
:102E7C0040F2671285E70022A9F8002083E700BF23
:102E8C0000000020D606002070070020D34D6210F1
:102E9C00676666666C07002074070020F8B5224947
:102EAC00224D234C4B6AAA6D23802248224E0024CB
:102EBC004C6202EB420212FA83F2037830681F4C28
:102ECC00970807FB03F3C3F38F13C3EBD20292B241
:102EDC000428AF65A384E28418D94B6A9A42FCD8C3
:102EEC00FFF74EF916493368164F487F002201331D
:102EFC0033603A70227310B991F8262042B1132B2B
:102F0C0003D9AB6DB3F5FA6F07D9F8BD4B6AE7E798
:102F1C000D4BAA6D1B689A42F7D2002385F85630E8
:102F2C00BDE8F84002F0EABB0010004000000020B1
:102F3C00620700206007002034080020D404002021
:102F4C0074070020E9060020EC0600202DE9F04370
:102F5C00AB4CAC4EB4F84E00B4F85010B4F8522050
:102F6C00338894F84050B4F844702786013001310E
:102F7C000132013383B0A4F84E00A4F85010A4F829
:102F8C005220338025B994F85430002B00F09680F1
:102F9C009D4FFB7F73B19D4A9D4892F86A1302883E
:102FAC0001390B44013292B203EB8303B2EB830F72
:102FBC0002807DDC94F83230914A002B53D1934D32
:102FCC0095F8561021B192F82810002940F0308164
:102FDC00B4F852208A4B142A19D91A7801200021EE
:102FEC0083F85900A3F85210002A00F0958093F84A
:102FFC002820002A40F0AF817B7F43B994F8383009
:10300C007F4A23B192F82830002B40F06081814B2D
:10301C0032881B787B499A422DD8B4F8421021860D
:10302C0094F84030764A23B192F82800002840F0FA
:10303C00C480A27B724E002A5CD0E888B6F8462089
:10304C00754B764D00FB02F283FB0263D217A2EBA9
:10305C00E31303449BB22B80714AA4F84210D06254
:10306C0053639363D363B4F85C300133A4F85C30DE
:10307C0003B0BDE8F0836B4BB4F842001B68002230
:10308C00952B0A8000F2AB8095F84830DBB285F8BE
:10309C009833218E5A4E0A1A9A4202DDC11889B20F
:1030AC003186421A9342BBDAC11A89B22186B7E73C
:1030BC000122002384F8582003807BE794F85520E4
:1030CC00002A3FF465AFA28D002A40F0E3805649F8
:1030DC000B8801339BB244F6206083420B807FF651
:1030EC0057AFB4F856301E2B00F2B68184F8552039
:1030FC000A804DE7387F444F022800F0B380E888FF
:10310C00454B464D00FB01F283FB0263D217C2EB29
:10311C00E3139BB22B809FE77A7F002A3FF46EAFBC
:10312C0093F82830002B3FF472AFB5F86EE3A96D1D
:10313C00D5F88023D5F87833D5F89003CEEB010180
:10314C0003FB0122314BC5F880238242C4BF0246E7
:10315C00C3F8800340429042C4BF0246C5F88003C6
:10316C00D5F87433D5F888030093D5F87C33C5F8BB
:10317C007013081A03FB00F0009BC5F8881303FBBF
:10318C000103D5F89413C5F8840313441F4AC5F8FA
:10319C008C338B42C4BFC2F88C130B464942994204
:1031AC00A26CC4BFC5F88C130B46204914481344B9
:1031BC008B4240F38280816420E7D28E2F2A7FF6E7
:1031CC0038AFE888144B154D00FB01F283FB02630A
:1031DC00D217C2EBE31301339BB22B803CE795284B
:1031EC00074B7FF651AF1B69B3F5FA7F8CBF95F88F
:1031FC00492095F84A20D3B285F8983349E700BFA7
:10320C00D4040020D2060020740700200000002007
:10321C00E6060020E4060020D34D6210D406002000
:10322C00002C014034080020CA06002060E3160080
:10323C008DE80C0002F056FA02F04CFA95F8521098
:10324C00009A59B3019B002800F0DB80117B95F8A4
:10325C0053000131C9B28842117380F0D6809B4A69
:10326C001370B5E6002B3FF44AAF02F0F5FDE88889
:10327C003A7B974B318E974D00FB02F283FB026336
:10328C00D217C2EBE31303EB83035B003C339BB21B
:10329C002B80E1E6904A914F13807AE6002840F0AB
:1032AC00C480137B95F853100133DBB2994213732E
:1032BC0080F0BF80854B18708AE6002B00F3CA8023
:1032CC000023836494F83830002B3FF4A0AE844B79
:1032DC00618F1B68AA6FD5F88800591A2B6FA966E5
:1032EC0003FB01227F4BAA678242C4BF0246986748
:1032FC0040429042C4BF0246A867EB6ED5F88000EE
:10330C0000936B6FC5F88010081A03FB00F0009B4C
:10331C00E86703FB0103D5F88C1073481344714A1A
:10332C00C5F884308B42C4BFC2F884100B464942A6
:10333C009942E26BC4BFC5F884100B466B49134429
:10334C008B4240F38280C163694B1B68632B9CBF2B
:10335C000023AB675BE697F82C00B3F95A102A6B85
:10336C00AB6AD5F840E000EB800000EB8000A1EBED
:10337C00C00103FB01225B4B2A637245C4BF72463A
:10338C00C3F830E0CEF100039342C4BF1A462B635E
:10339C00A86B6B6A0093EB6A2962081A03FB00F0B6
:1033AC00009BA96303FB0103696C686313444D4ADA
:1033BC00EB638B42C4BF0B46D16349429942C4BFF5
:1033CC000B46E9634B49B5F89420288981FB03E14E
:1033DC00DB17C3EB2133D31A1BB28342414AA5F846
:1033EC009430BCBF03B2A2F89430B3F5FA6F03DD8E
:1033FC004FF4FA63A5F894307B7F002B3FF4FEADBD
:10340C0093E6324A137801331370237D002B7FF43B
:10341C00DFAD2E4A95F86B3312789A427FF6D8AD11
:10342C0001232375FFF73AFDD2E5284A13780133BF
:10343C001370237D002B7FF4CBAD244A95F86C33AD
:10344C0012789A427FF6C4ADEAE7002BB8BF00238E
:10345C00C36379E7836435E701231946104684F882
:10346C00403002F0E7FB94F854501C4F1DB997F80C
:10347C002430012B0DD001F07FF8A3781A4A002BD1
:10348C007FF487AD5378002B7FF483AD87F826301B
:10349C007FE5194B194A1B885B08A2FB0323DB0948
:1034AC0084F85430002BE8D0DFF854904AF6AA2860
:1034BC0001F062F86420FEF7DFFB94F85430C9F891
:1034CC0000800135AB42F3DCD7E700BFE9060020F2
:1034DC00D34D6210D4060020CA06002074070020C9
:1034EC00E006002000000020D4040020F058380131
:1034FC0034080020AD8BDB68D0060020B9D31FB197
:10350C00003000402DE9F04F85B002F0C1F94FF4C6
:10351C007E63BD4A1968914200F07584BB4DBC4E68
:10352C0002F056FA02F0A4FBFEF780FCF378022BB3
:10353C0000F03F84022114240323F1702A68B4485C
:10354C003471C021737002F00BF9737C327DA98841
:10355C00E98013F1FF3318BF012385F85430AC4BCD
:10356C0002B9DA7496F82620A94BB2B12A89B5F8BB
:10357C009A03698932320124323032314FF47A772E
:10358C002A810022A5F89A036981AF839C7485F87F
:10359C004B40DA745A751A759A759E4C94F8402003
:1035AC00002A40F029841146012002F043FB00F070
:1035BC0069FF0023A4F8563002F06CF9964B954F36
:1035CC004AF6AA221A6001F013FF94F8393013B1AD
:1035DC00012387F8383001F097FFDFF864B2DFF889
:1035EC0064A2228B638BA18B1344E28B0B44218C42
:1035FC001344628C0B441344DAF8002004335B1040
:10360C00042ACBF8003000F20582B37C002B00F0CA
:10361C005B82042385F86B3385F86C33737D7E4AAB
:10362C007B4F4AF6AA21012B116000F0D382022BAA
:10363C0000F03982B4F85C30764F42F2107293424B
:10364C0009D997F84010002940F08F8349F6404281
:10365C00934200F2B883B4F84E206E4944F62063CE
:10366C009A420FD9B1F95A306C480A6E1B0480FB90
:10367C0003701844DB17C3EB2023134400220B66A2
:10368C00A1F84E20DAF80020A38DB2F57A7F00D88D
:10369C0013B9002184F83410642A04D9C72B9CBFB9
:1036AC00002184F83410F17C21B19F2B9CBF0021A8
:1036BC0084F8341094F864105648002900F0B08156
:1036CC00B3F5C87F02D2002380F83430DBF8001049
:1036DC00534B607B4F4F83FB01E3A3EBE171216103
:1036EC0010B10A2A00F2048294F86630002B00F024
:1036FC00AD80AB6D322B40F2A9804A4BDFF81481C0
:10370C001022002183F80B1383F8152383F80C2364
:10371C0094F85870002F40F0A980DFF82C8198F8AD
:10372C000030002B40F0D68194F85980394FB8F115
:10373C00010F00F0B58097F83230364F4FF000088B
:10374C0084F86F80002B40F0368197F82870364A49
:10375C00DBF80030354892FBF3F3354917FB03F3E4
:10376C009BB2A0FB03200B80324A95F84B30274FBD
:10377C00C0081080002B40F01F824FF4FA63A7F8AA
:10378C0092302D4B96F82B1018788142C0F0DE81C8
:10379C00DAF80030632B00F26381AB6D1B4AB3F592
:1037AC00FA7F40F25D810C2382F85C3096F82F3062
:1037BC00002B40F06C81214B5A6A4AF6C8739A422E
:1037CC007FF60FAF94F82870DFF84880012F7FF454
:1037DC0008AF98F83430013388F8343001F082FFA8
:1037EC00B8F8363085F856702F2B084A05D80021CA
:1037FC0041F2883388F8281093650023CAF800300A
:10380C00FFF74CFBEDE600BFDAE325590000002082
:10381C0074070020D404002000300040B7600BB6C1
:10382C005655555500E100E0C0270900CDCCCCCC55
:10383C005C070020F4060020E80600200010004081
:10384C00E006002034080020DA060020C64BDFF822
:10385C0028830022102183F80B1383F8152383F897
:10386C000C2394F85870002F3FF457AFBF4FC04A49
:10387C00C04B3F8811881878B8F85A20B8F86230D5
:10388C000097FEF789FA0A2002F018FD002388F849
:10389C00583094F85980B84FB8F1010F7FF44BAF02
:1038AC0001F0E4FC4146B548DFF8048301F088F8E8
:1038BC00B34B188801F086FDB249B34BB1F800C088
:1038CC001B88397A039140F6E44EB049B5F89C93C5
:1038DC00A74AA8F800000EFB03F381FB031E9E44CD
:1038EC00DB17C3EBEE2309FB03F9A94B1288DFF8B6
:1038FC008482A84988F8000083FB093E4FEAE979E5
:10390C00C9EB6E19C2EBC2024A44039BC2F3CF0847
:10391C00039A31F813E096497B68A1F80080501C9B
:10392C009C49C0B2312821F812C084BF00213972E1
:10393C006344974998BF3872CEEB03037B60A1FBBD
:10394C00033E4FEA1E1E1FFA8EF140F6E4439248E6
:10395C00A16603FB01F380FB0370DB17C3EB202391
:10396C001BB2002B8449A4F80AE0B8BF0023A1F8CD
:10397C005A3096F824308949012B00F09781022B9C
:10398C0000F0878194F83230854AB4F86C107A4F85
:10399C0002FB03F202F51C521032914200F36581D6
:1039AC0000224FF0000884F8592084F86F80724F81
:1039BC00002B3FF4CAAEFB8E302B38D997F8402041
:1039CC00AAB3313B572B00F2818197F87030002B52
:1039DC0040F0B881FFF7B2F9F37EE08E41F6583132
:1039EC0040F22A3292FBF3F291FBF3F30092302176
:1039FC007822FEF70DF9034680B2A5F8A033FEF746
:103A0C002FF95A4AB5F8A0134FF4167393FBF1F340
:103A1C001380E6E5032385F86B3385F86C33FDE5FD
:103A2C00952B94BF64230A2385F85E304EE6377FCE
:103A3C00DFF84481DFF8649101239F4284F87030F1
:103A4C0000F0D380022F00F0EE80564B00225A6318
:103A5C009A63DA6302F0C2F9444B00221A80C0E583
:103A6C000C23206900934FF4FA7203236421FEF7B0
:103A7C00CFF8AB6D4C4A85F85C00312B9CBF022310
:103A8C0082F85C3096F82F30002B3FF494AE17235D
:103A9C00208E00934FF4FA620D236421FEF7B8F8E0
:103AAC00424B187087E62369A3F16502942A04D867
:103ABC0003EB430203EB8202EA80013B622B11D839
:103ACC0040F21453EB80B5E5062385F86B3385F88B
:103ADC006C33A3E5FEF77CF9312002F0EFFB88F89C
:103AEC00007021E6F82B84BF40F6B243EB80A1E5D1
:103AFC00DFF8C080D8F80000FEF7ACF83B69B0EBFB
:103B0C00530F19D9B3F5FA6F16D297F86520B17C1B
:103B1C00013287F865200022CAF8002089B9FA8E94
:103B2C002F2A0ED9002284F828206A8901215208F4
:103B3C00A4F8422085F856100022C8F800306273B1
:103B4C00D2E5AA6DB2F57A7FEFD9EBE7B5F89E33E3
:103B5C000122D340009201F10A020A39FEF758F80B
:103B6C00A5F8920014E600BF00E100E05C0700201D
:103B7C00D0060020E8060020D404002000240140D8
:103B8C005E0700206A070020D8060020810008800C
:103B9C001F85EB51F8060020FF04EC4F7407002042
:103BAC0054D9FFFF002C014000000020F00600203B
:103BBC00CE06002064070020B7F89EE3BB8BB7F855
:103BCC004E20B7F84C10CDF800E0FEF721F8A7F81E
:103BDC009200D6E5AB880093A86D5B08C8226021E3
:103BEC00FEF716F87B7DE88021E599F82910EB8823
:103BFC009248DFF8789201EB810101EB8101C90059
:103C0C0089B203FB01F280FB02E0D217A2EBE012B7
:103C1C0013449BB2632BA8F84610A9F8003019D8AE
:103C2C0002F0B8FA18E7384602F016F999F80C10B9
:103C3C00EA88824B02FB01F283FB0213D217C2EB20
:103C4C00E31303EB83037E4A5B003C3353639363C0
:103C5C00D36301E702F08AF8794BB9F8002088F8B1
:103C6C000E705A639A63DA63F6E601234FF000088C
:103C7C0087F86E30A7F8368002F0B0F801F032FD0C
:103C8C0097F8323087F82880A7F8568087F840805C
:103C9C0086E60B7A434500F2868094F86E30694ACA
:103CAC00002B7FF46FAEA2F86C306BE694F85400E6
:103CBC002B8B644903FB00F343456EDC91F86E30AB
:103CCC00002B7FF45FAEA1F86C305BE6012387F824
:103CDC007030FFF733F8FB8EDFF89491C82B04D9C2
:103CEC005023A9F80080A5F8A033B5F8A003564FCF
:103CFC00FDF7B6FFB9F90030002B7FF472AC5349D5
:103D0C00534884F83230A37342F228330360BB6506
:103D1C002361727F4B620123142184F8283087F8C9
:103D2C00563097F8A23387F85530CAF80010454B37
:103D3C001AB1B7F89A23A3F84220FEF721FA01F042
:103D4C0069FF4EE4434AD36823F00103D36001F0CA
:103D5C00C9FC3B4BC3F83480C3F83880C3F83C80B3
:103D6C0002F056FA87F8708034E602F037F8344BDC
:103D7C0000245C639C63DC6387F84040FC8687F816
:103D8C005540A7F8564001F04DFF21464FF4807284
:103D9C00314802F0DBFBFEF737F8B1F86C30013339
:103DAC00A1F86C30EEE5B4F86C300133A4F86C304B
:103DBC00E8E53379142B7FF4BDAB7378022B3FF617
:103DCC00C4ABFFF7B7BB039102F008F81C4B039987
:103DDC0087F8401059639963D963F98687F85510B1
:103DEC00A7F85610039101F01DFF03991A484FF4E0
:103DFC00807202F0ABFBCEE700221046012101F0ED
:103E0C0019FFFFF7D4BB154A596891427FF486AB72
:103E1C001B7B0D4D2B2B0CD0352B06D01F2B7FF481
:103E2C007EAB0F4B2B60FFF77ABB0E4B2B60FFF773
:103E3C0076BB0D4B2B60FFF772BB00BFD34D6210EE
:103E4C00002C0140D4040020000000200010004091
:103E5C00640700200044014078050020D963B84E67
:103E6C00007C000800F8000800F80108D4060020C7
:103E7C00D60600202DE9F041674C23686068C01A13
:103E8C006FF44873C21840F276539A4282B02FD81E
:103E9C00624D634E2B7800223280002B3DD06B7824
:103EAC000146C3B9AB78002B00F09D80A8885D4F0C
:103EBC00DFF8688139880133AB70FDF7CBFE32280F
:103ECC0071D900223B8888F800206A78AB8052B107
:103EDC0061682368C91A40F2E143994257D9AB791A
:103EEC004B2B00F28380504A00231468338004E08B
:103EFC004D4A4E4B146800221A804D494D4B0A888E
:103F0C001B68A01A98421CDC101B8342BABFD31A40
:103F1C000B800C8002B0BDE8F081474A957CADB1B6
:103F2C00464A1288904223D845494FF47A7409883E
:103F3C000094FDF76DFE3C4B044618600023338063
:103F4C00DBE713440B8002B0BDE8F0813C4B354AF3
:103F5C001988128840F2FF7300932F23FDF758FE47
:103F6C00314B3028C7BF044618602C461D60E5E76E
:103F7C002C4B1C884FF4FA63511C0093224640F2E0
:103F8C00E933FDF745FE284B04461860D6E72C486C
:103F9C00AB790288C2EBC20211440133C908DBB20F
:103FAC000180AB719CE794E80A003A885B1AC2EB7B
:103FBC00C202134498F80220C3F3CF03322A3B8089
:103FCC0083D9193B9BB2A3F2D6621B493B8002EB0F
:103FDC00D2720123521088F8013081F8212000F0B0
:103FEC0001FB3B8871E780B2A88060E71449124856
:103FFC000A88193292B2A2F2EE2303EBD3735B1050
:10400C0000240A8080F820302C70FEF7AFF8AC71D9
:10401C0000F018FB67E700BF78050020640500205E
:10402C0030050020120000203C0800202A0500204A
:10403C00FE040020B80300207407002014000020A8
:10404C0010000020564ADFF878C11168F0B5DFF88F
:10405C005CE144F62065002702F17806AEF80450C6
:10406C003C4652F8043F8B42A3EB0100194604D0A6
:10407C00A8423CBF85B201270444B242F1D1002FC3
:10408C0040F08A80474A13786409012BCCF8004031
:10409C004ED045480178012936D08BBB81BBBEF888
:1040AC000430424E5D1E022D10D83B2C0ED8404DD4
:1040BC00404FDFF808C1297001213F4D39708CF851
:1040CC00001011700E2720212F70B171191F0429B7
:1040DC0010D8632C0ED8364E364F384D364C012145
:1040EC003170117003263970202207212E70217037
:1040FC008EF80620C93B9BB244F6565293420CD91B
:10410C00F0BD0378012BFBD1BEF80410A1F1C9035B
:10411C009BB244F656529342F2D8254C25490123C2
:10412C007725022225700B7003708EF80620F0BDE7
:10413C00BEF804101D4D481E022801D83B2C1BD97B
:10414C000B1F042B1848DCD8632CDAD8DFF860C0BE
:10415C00184F0478194E184D012313708CF8003049
:10416C003B70032307223370012C4FF020032A707D
:10417C008EF80630C4D1C9E70D4E104F0E483B7077
:10418C004FF0000C86F800C00E270A4E0770202056
:10419C0013703370A871D3E7AEF8045072E700BF08
:1041AC0078050020D5040020D6040020B803002098
:1041BC00C203002029050020C3030020440800206E
:1041CC004008002070B5534C237813B1524B1B7828
:1041DC0033B9524B1B78002B76D0012B0AD070BD13
:1041EC004F4B1B78002B41D001F002F94D4B0222B2
:1041FC001A7070BD484B1B78002B3DD14A4D2B7863
:10420C00012B74D0494B1B78012B67D02378002BE2
:10421C00E5D12B78FBB1464A1378072B1BD84549BF
:10422C000988052917D94449444CC86F0968256881
:10423C000133DBB2411A15FA81F1082B137021609E
:10424C0009D1C1F3CF033E483E4AC1F3CF115C18EC
:10425C00591A048111813C4D2888D0B9394B1B78EF
:10426C00BBB9344A13880133138070BD01F0FAF8DE
:10427C002C4B01221A7070BD294B1B7853B3334B56
:10428C001888FDF7ADFBFDF7D5F8BDE8704001F0DF
:10429C00AFB82F4BDC79002CA1D1264A40F2DC536D
:1042AC00984214809BD9274E7189FDF7D3FC322894
:1042BC0022D8337B0133DBB2322B337301D97478C0
:1042CC000CB32B88738170BDFFF7BCFEBDE870404A
:1042DC0001F08EB8BDE8704001F0C4B801F00CF9E3
:1042EC00174B58B103229A7101F082F88EE7FDF753
:1042FC00A1F801F07DF885E73473E2E702229A71A8
:10430C00FFF7B8FDF0E700F0CDF9012334733370FB
:10431C00D7E700BF140500203A050020290500202E
:10432C007405002020050020D5040020D6040020B0
:10433C00450800202A0500207805002038080020B8
:10434C00B80300206405002000050020E0060020D2
:10435C00740700200B2828BF0B20024B400018705C
:10436C00704700BF460800202DE9F84F032001F0EC
:10437C0073FDDFF804A1DFF8049100230AE06C63FD
:10438C00AC63EC63FDF778FC2346324A0AF1020A6F
:10439C0092454BD0304A4AF6AA2111609AF8341053
:1043AC000027FF29A9F8007050D09AF835402B4D02
:1043BC00DFF8CCE02A4A4FF47A60F72616FB0406A5
:1043CC00C3EBC3104FF0FE0B01EB40004FF00A089B
:1043DC001BFB031380B2002CD1D09EFBF6F692FB94
:1043EC00F6F22049C5F8288092B2EA6209781E4894
:1043FC0090FBF6F602FB01F11C4A82FB01021C4801
:10440C0006FB03F3C91780FB0340DB17C1EBE22269
:10441C00C3EB60106A63AA63EA6380B2FDF72CFCFD
:10442C000C4A0AF1020A92453B46B3D101F0D6FC84
:10443C000A4A10480849002393620088D0624AF661
:10444C00AA22A9F800300A60BDE8F88F0133DBB26C
:10445C009BE700BFF007002000300040002C01401B
:10446C00001BB70046080020A086010057EAE06850
:10447C001F85EB510400002074070020300500203C
:10448C00C0D8A70010B572B61A4B93F83030FF2B7A
:10449C0007D0FFF769FF184A184B1288DA6262B628
:1044AC0010BD164C164B41F28732E2621B786363E7
:1044BC00A363E363032001F0CFFC3723A362C8207E
:1044CC00FDF7DAFB052001F0C7FC2823A362C82006
:1044DC00FDF7D2FB062001F0BFFC1923A362C82014
:1044EC00FDF7CAFB01F07AFC064A0023A362138095
:1044FC00D1E700BF7407002004000020002C01400D
:10450C00460800203005002070B5164C41F2873368
:10451C00E36272B6144D154B3C224AF6AA262E6065
:10452C00A2621B786363A363E363012001F094FC34
:10453C004B20FDF7A1FB5023A3624B20FDF79CFB06
:10454C005A23A3624B202E60FDF796FB01F046FC2C
:10455C000023074AA362074912880B80E26262B605
:10456C0070BD00BF002C0140003000404608002008
:10457C00040000203005002038B572B6144C1549E3
:10458C00154B502241F287354AF6AA20E5620860A5
:10459C00A2621B786363A363E363032001F05CFCFA
:1045AC006420FDF769FB4623A3626420FDF764FBDE
:1045BC002823A3626420FDF75FFB01F00FFC0023AE
:1045CC00064AA362064912880B80E26262B638BDC5
:1045DC00002C014000300040460800200400002060
:1045EC003005002010B5124C124B41F287313222AB
:1045FC00E162A2621B786363A363E363022001F0B0
:10460C002BFC9620FDF738FB0B4A4AF6AA211E23F9
:10461C0011609620A362FDF72FFB01F0DFFB002356
:10462C00064AA362064912880B80E26210BD00BFE5
:10463C00002C0140460800200030004004000020FF
:10464C003005002010B5124C124B41F28731282254
:10465C00E162A2621B786363A363E363022001F04F
:10466C00FBFB9620FDF708FB0B4A4AF6AA215023C8
:10467C0011609620A362FDF7FFFA01F0AFFB002357
:10468C00064AA362064912880B80E26210BD00BF85
:10469C00002C01404608002000300040040000209F
:1046AC00300500202DE9F041194D41F2873382B0DD
:1046BC00EB6272B6174BDFF86C801B78164F6B638E
:1046CC00AB63EB6377244AF6AA2687FB0430E31727
:1046DC00C3EBE000C8F8006001F0BEFB63100A33C6
:1046EC00AB62023C0A20FDF7C7FA621C084BECD106
:1046FC00019301F073FB019B0849094800229A625F
:10470C0009880280D96262B602B0BDE8F08100BFB0
:10471C00002C0140460800206766666604000020F5
:10472C003005002000300040002103E00B4B5B58AB
:10473C00435004310A480B4B42189A42F6D30A4AAA
:10474C0002E0002342F8043B084B9A42F9D301F0F3
:10475C003FFE01F0D5FEFEF7D5FE7047D065000890
:10476C0000000020C8030020C803002050080020CF
:10477C00FEE70000836861F300038360704700BFAD
:10478C0000230122C270037043708370704700BF16
:10479C0043680A7862F30823436083684A7862F3BB
:1047AC00410383608A78836862F3CB238360CB7880
:1047BC00C26A013B63F31752C2627047836861F3AC
:1047CC0008238360704700BF836843F0080383604D
:1047DC00704700BF8068C0F3C0007047836843F027
:1047EC0004038360704700BF8068C0F3800070478B
:1047FC0010B4112917D8DFE811F074007E00830083
:10480C0088008D00920097009C00A100A600AB00D0
:10481C00B000B500BA00BF001200C4007900C46833
:10482C0063F3D134C460013A0F2A0DD8DFE802F0EB
:10483C000E13181D22272C31363B40454A4F540885
:10484C00C36A61F3D333C36210BC7047436B61F32B
:10485C0004034363F8E7436B61F349134363F3E7E2
:10486C00436B61F38E234363EEE7436B61F3D33306
:10487C004363E9E7436B61F318534363E4E7436B2A
:10488C0061F35D634363DFE7036B61F3040303636D
:10489C00DAE7036B61F349130363D5E7036B61F349
:1048AC008E230363D0E7036B61F3D3330363CBE74E
:1048BC00036B61F318530363C6E7036B61F35D632A
:1048CC000363C1E7C36A61F30403C362BCE7C36A51
:1048DC0061F34913C362B7E7C36A61F38E23C36202
:1048EC00B2E7046963F3020404619CE7C46863F3F0
:1048FC005754C46097E7046963F3C504046192E7F5
:10490C00046963F3881404618DE7046963F34B2431
:10491C00046188E7046963F30E34046183E7046976
:10492C0063F3D13404617EE7046963F39444046156
:10493C0079E7046963F35754046174E7046963F31A
:10494C001A6404616FE7046963F3DD6404616AE768
:10495C00C46863F30204C46065E7C46863F3C50408
:10496C00C46060E7C46863F38814C4605BE7C46820
:10497C0063F34B24C46056E7C46863F30E34C4601D
:10498C0051E7C46863F39444C4604CE78368072917
:10499C008CBF43F000736FF359638360836861F3DA
:1049AC0053438360836862F314538360704700BF82
:1049BC00024B9A6860F3D7529A607047002401400A
:1049CC00836861F396538360704700BF20B9034B33
:1049DC001A6861F300021A60704700BF1C000140A6
:1049EC0013490B6843F001030B600A68104B9207E4
:1049FC00FBD55A686FF301025A601A4653680C498A
:104A0C00C3F38103002BF9D130B40A6822F086720B
:104A1C0041F610754FF4801422F480324FF41F00CD
:104A2C000A604B60CD620C63886030BC704700BF7D
:104A3C0000100240030C03F1804303F5043300F033
:104A4C001F001A68012303FA00F030EA02030CBFBE
:104A5C0001200020704700BF030C03F180430129A3
:104A6C0003F5043300F01F0007D01A68012101FA86
:104A7C0000F022EA0000186070471A6801FA00F092
:104A8C0010431860704700BF030C03F180430129E9
:104A9C0003F5043300F01F0007D01A68012101FA56
:104AAC0000F022EA0000186070471A6801FA00F062
:104ABC0010431860704700BF042809D8DFE800F0E5
:104ACC00090F151B03000F4B5A6A61F300025A625F
:104ADC0070470C4B1A6861F300021A607047094B5F
:104AEC001A6861F310421A607047064B1A6861F33A
:104AFC0018621A607047034B1A6A61F300021A625B
:104B0C00704700BF00100240024B5A6860F3071256
:104B1C005A60704700100240024B5A6860F30A2238
:104B2C005A60704700100240024B5A6860F3CD2265
:104B3C005A60704700100240054B5A6860F38F3280
:104B4C005A605A68C0F3800060F31C725A60704758
:104B5C0000100240124B5A6898B960F310425A6028
:104B6C0000200F4B5A6861F395425A605A68C1F3A2
:104B7C00011161F35E725A60DA6A60F31A62DA62EA
:104B8C00704742F480325A6001285A6803D042F4CC
:104B9C0000325A60E4E76FF351425A600220E0E7BA
:104BAC0000100240024B5A6860F301025A607047D1
:104BBC0000100240024B5868C0F38100704700BFE0
:104BCC000010024070B53D494B68C3F38103012BC3
:104BDC00044602D049D3022B26D039482060374AEC
:104BEC00384D53683849C3F30313EB5CD84060600D
:104BFC005368C3F30223CB5C20FA03F3E3605168E0
:104C0C00C1F3C22129440B7CD840A0605368526880
:104C1C00C3F30073C2F3813242EA83032B441B7E3D
:104C2C00B0FBF3F0206170BD4D68CB6A002BC5F36F
:104C3C00004523DACA6AC86ACB6AC2F30312C0F30E
:104C4C00082003F00703002D35D04E681C491F4D7A
:104C5C0016F4003F08BF0D4680B29A40A0FB050138
:104C6C000023FCF75BFA2060B9E74B6D9805B4D5CF
:104C7C000B6B9901B1D516482060B0E74B684868BA
:104C8C00C0F34170C3F3834360B90F2B0AD00233D6
:104C9C001DB10A4A5268920308D50C4800FB03F078
:104CAC0020609CE7013303EB0013F1E7044800FBA1
:104CBC0003F0206093E7054DCEE700BF00100240E3
:104CCC0000127A0090650008A065000800093D00FC
:104CDC00006CDC02012805D0054B5A6D6FF30512F0
:104CEC005A657047024A536D43F030035365704761
:104CFC000010024010B401680B4A0C4CC3B2083BC4
:104D0C006FF30001A2FB0323002201601B09026068
:104D1C0042608260C26062689B000F2101FA03F35B
:104D2C001343636010BC7047CDCCCCCC0000024068
:104D3C00036861F300030360704700BF034B1B68FB
:104D4C00034214BF01200020704700BF0000024046
:104D5C0000230360436003814381037343738373B4
:104D6C00C37303744374704702684BF6EF731340BC
:104D7C00036003680A891343036003684A7C62F387
:104D8C000D3303600368CA7B62F38B2303600368F3
:104D9C008A7B62F30923036003684A7B62F3C713BF
:104DAC0003600A7B036862F3861303600A7C036862
:104DBC0062F3451303604B8943600B6883604B6857
:104DCC00C3607047014BD860704700BF00200240A1
:104DDC00024B0349034A59605A6070470020024055
:104DEC0023016745AB89EFCD024A136943F0800379
:104DFC0013617047002002401B490B6943F002030A
:104E0C000B6148610B6943F040030B61CB68DA0717
:104E1C0004D4CB685B071FD501200CE04FF0804316
:104E2C00CA681148D2070CD4C26852070DD50120AC
:104E3C00012B08BF04200C4B1A696FF341021A6155
:104E4C007047013BECD10420F5E7C26812F0100F5B
:104E5C0014BF02200320EBE7CB6813F0100F14BF34
:104E6C0002200320E7E700BF00200240194B1A691B
:104E7C0042F001021A610160DA68D20704D4DA68E0
:104E8C00510720D501200DE018464FF48013C2685D
:104E9C001049D2070CD4CA6852070DD50120012B3A
:104EAC0008BF04200B4B1A696FF300021A6170479C
:104EBC00013BECD10420F5E7CA6812F0100F14BFC7
:104ECC0002200320EBE7DB6813F0100F14BF022065
:104EDC000320E7E7002002400A88002A49D02DE988
:104EEC00F04700264FF0030E0127B5B26C000EFA06
:104EFC0004F312F0010F6FEA030307FA05FA06F147
:104F0C00010632D0D0F800C00CEA030CC0F800C087
:104F1C0091F80680D0F8009008FA04F848EA0908DD
:104F2C00C0F80080D0F804C02CEA0A0CC0F804C009
:104F3C0091F80480D0F804C008FA05F545EA0C0590
:104F4C00456085681D40856091F807C085680CFA3E
:104F5C0004FC4CEA05058560C5682B40C3604D799F
:104F6C00C36805FA04F41C43C4605208BDD1BDE803
:104F7C00F087704701F007039B00C90810B402FAD0
:104F8C0003F24FF00F040AD1016A04FA03F321EA89
:104F9C0003030362036A10BC1A4302627047416A3E
:104FAC0004FA03F321EA03034362436A10BC1A4375
:104FBC00426270471D4BDB68C3F3022330B4C3F16C
:104FCC000704042C03F1040528BF0424062D20D962
:104FDC00033B01259D40013D2A40012505FA04F4BF
:104FEC00013C0C4004FA03F3002842EA030213DBF1
:104FFC0000F1604303F561431201D2B283F8002340
:10500C000B4B00F01F024009954043F8205030BC78
:10501C00704700221346E0E7064B00F00F00120128
:10502C000344D2B21A7630BC704700BF00ED00E0EA
:10503C0000E100E0FCEC00E008B52E4B98421CD0DF
:10504C002D4B984223D02D4B98422AD02C4B984272
:10505C0031D02C4B984238D02B4B98423FD02B4B15
:10506C00984200D008BD01212948FFF70DFD002111
:10507C002748BDE80840FFF707BD01212548FFF789
:10508C0003FD00212348BDE80840FFF7FDBC0121CA
:10509C002148FFF7F9FC00211F48BDE80840FFF745
:1050AC00F3BC01211D48FFF7EFFC00211B48BDE8B4
:1050BC000840FFF7E9BC01211948FFF7E5FC002186
:1050CC001748BDE80840FFF7DFBC01211548FFF782
:1050DC00DBFC00211348BDE80840FFF7D5BC0121DB
:1050EC001148FFF7D1FC00210F48BDE80840FFF73D
:1050FC00CBBC00BF002C014000040040001000405D
:10510C0000200040004001400044014000480140A4
:10511C0012000C000B000C00010010000400100029
:10512C000800100010000C0011000C00036861F363
:10513C00C7130360704700BF062909D8DFE801F0E8
:10514C0013080E0809080400C36962F3CB23C3617A
:10515C007047C36962F3C303C3617047836962F329
:10516C00CB2383617047836962F3C3038361704708
:10517C00062909D8DFE801F0090E13181D220400D6
:10518C00036A62F30C3303627047036A62F3000331
:10519C0003627047036A62F3820303627047036A17
:1051AC0062F3041303627047036A62F386130362AB
:1051BC007047036A62F3082303627047036A62F361
:1051CC008A230362704700BF2DE9F04186B0054683
:1051DC0001A816461F468846FFF7F4FC039B04986B
:1051EC00114A124C954208BF184600EB8000400053
:1051FC00B0FBF8F1A4FB0134E40804EB8400A1EB50
:10520C0040010429AB6888BF0134A4B264F30F03D6
:10521C00AB60EB6866F30C33EB602B6967F30D3313
:10522C002B6106B0BDE8F08100380140CDCCCCCC70
:10523C00C36861F34D33C360704700BFC36861F34B
:10524C00C303C360704700BFC36861F38203C360CC
:10525C00704700BF436961F3C7134361704700BFD8
:10526C00436961F3C3034361704700BF30B4064B1D
:10527C00064C0749074ADD8818885B88258008801A
:10528C00138030BC704700BF480800205E07002028
:10529C00D80600206A070020F0B5082387B000224A
:1052AC0003214FF09040FCF753FD402300220321D3
:1052BC004FF09040FCF74CFD01214FF4A010FFF78C
:1052CC00CBFB3B48FFF716FD042501A8FFF740FD7B
:1052DC000124384A384B3648029200260DEB050162
:1052EC0002270193ADF80E50ADF80C608DF81060EC
:1052FC008DF813408DF811408DF812408DF8144044
:10530C008DF81570FFF730FD21462948FFF710FD89
:10531C0021462A48FFF7A0FB0720FFF70DFC684643
:10532C00FFF72EFA694626488DF802608DF800408A
:10533C008DF801408DF80350FFF72AFA224603231B
:10534C0006211F48FFF754FA032319463A461C4816
:10535C00FFF74EFA03231A4611211948FFF748FAB2
:10536C0007232A4610211648FFF742FA2046FFF77A
:10537C001FFB224607211248FFF708FB2146104865
:10538C00FFF71CFA0E482146FFF7F4F90C48FFF71B
:10539C001BFA0B48FFF71EFA0028FAD10848FFF752
:1053AC001DFA0748FFF720FA0028FAD107B0F0BD24
:1053BC0008000240480800204C2401400900180055
:1053CC000024014048F2E80303FB00F00028B8BFBA
:1053DC0000F6FF700013054BC0F5485083FB00230B
:1053EC00C017A0EBE300193000B27047310CC3308A
:1053FC0070B5164D164C2B682B602046FFF71CFE23
:10540C0041210B22134BA16122621B78A3624FF640
:10541C00FF73E3626269104B104E114842F00102B7
:10542C000021626103F8041B6162AE60EB600378DB
:10543C006B60E36843F40073E360236840F68B12FF
:10544C0043F0010323602A6070BD00BF440002409A
:10545C0000040040C2030020740500203404004006
:10546C00BE03002038B51D4D1D4C2B6843F01003B6
:10547C002B602046FFF7E0FD60210323194AA16150
:10548C0023621278184BA2624C210122E1621A703D
:10549C00636916481649174A43F001036361A86013
:1054AC00E960537817336B602B6843F002032B6071
:1054BC002B6843F008032B602B6843F001032B602F
:1054CC00E36843F40073E360636C43F40043636488
:1054DC00236843F00103236038BD00BF4400024041
:1054EC0000040040440800207405002034040040EF
:1054FC003C040020C2030020024B186900F010008D
:10550C00704700BF0004004810230122022101480B
:10551C00FCF72CBC00040048FEE700BFFEE700BF10
:10552C00FEE700BFFEE700BF704700BF704700BF3B
:10553C00704700BF704700BF10B50220FFF7FEFB9D
:10554C00012800D010BD054C6060FFF78FFE0820CD
:10555C00FFF7F4FB012808BF606010BD000002409B
:10556C0008B5244B1B78BBB94FF48040FFF7E6FB22
:10557C00012821D04FF40050FFF7E0FB012829D07F
:10558C004FF40040FFF7DAFB012800D008BD1A4B9E
:10559C004FF480525A6008BD174A184B4FF4805193
:1055AC0051601A686FF300021A60FEF70BFE144B81
:1055BC004FF400421A6108BD124B1B78002BD9D056
:1055CC00114A0D49136A4FF4804043F002031362F1
:1055DC004860CFE7084A094B4FF4805151601A6874
:1055EC006FF300021A60FEF7EDFD054B4FF400421D
:1055FC001A61C5E7D50400200000024044000240B7
:10560C0000040140D60400200004004008B50D4AF7
:10561C000D4B12685B6AB3EB520F0BD800F05AF8C3
:10562C000A4B1B78834200D008BD094B4FF4001283
:10563C005A6108BD064B4FF400125A61BDE8084090
:10564C00FCF796BEE404002000100040520000203D
:10565C0000040140024B4FF6FE721A61FDF776BC56
:10566C0000200040024B00221A61FCF7E3BD00BF92
:10567C0000440140034B4FF6FE714FF6FD72196169
:10568C001A61704700400140704700BF074B1A6910
:10569C00910744BF4FF6FD721A61044B1A69D20789
:1056AC0044BF4FF6FE721A61704700BF0004004001
:1056BC00064A07491368013313604B691B0400D475
:1056CC0070474FF400434B61FDF716BB7806002082
:1056DC0000040140024B1868C0F38070704700BF93
:1056EC001C000140044B1A684FF4001122F4001204
:1056FC001A605961704700BF00040140024A1368E8
:10570C0043F400131360704700040140104B1B68F6
:10571C00B3F5C87F12D20F4A136823F00403136049
:10572C000D4B0E4A1B78002B08BF4FF400114FEAAB
:10573C00435318BF00219160D3607047B3F5167FB7
:10574C00EED9044A136843F004031360E8E700BF82
:10575C00E40400201C000140520000200004014021
:10576C002DE9F0430029B8BF03318E104FEA8608AB
:10577C0008F10A0383B023F0070300AFADEB030D70
:10578C008146154668463246002100F0DFFE002EA9
:10579C006C4613DD4846C844ADF1040E8178C378DD
:1057AC00027890F801C0090441EA03631343043002
:1057BC0043EA0C2380454EF8043FEFD13E60FFF7DF
:1057CC0007FBC5F30903EBB100237B607B683A68E8
:1057DC009A4211D978687B6805EB800054F8231045
:1057EC00FFF744FB0320FFF7EDFA7B6801337B6086
:1057FC007A683B689A42EDD3FFF7F6FA0C37BD4650
:10580C00BDE8F0832846FFF7F7FADDE7002A3DDD17
:10581C00031D8B428CBF00230123F0B50C1DA0424D
:10582C0028BF43F00103092A94BF002303F00103AE
:10583C0013B340EA01039B071ED1131F9B080133CE
:10584C009C000F1F06460025013557F804EF46F85B
:10585C0004EBAB42F8D8A24216D011F8235000F852
:10586C002350631C9A420FDD0234CD5CC554A24216
:10587C000BDD0B5D0355F0BD0244013911F8013FFE
:10588C0000F8013B9042F9D1F0BDF0BD704700BF6C
:10589C0062B6704730B4084B45F255554CF6CC44C3
:1058AC0003204FF47A614AF6AA221D601C605860EE
:1058BC0099601A6030BC70470030004070B501210F
:1058CC003E4C3F483F4EFFF7C7F80025682341F296
:1058DC00873146F66802E1622046A5622946A2613C
:1058EC00E3610122FFF728FC204601220221FFF789
:1058FC0023FC204601220421FFF71EFC2046012137
:10590C00FFF714FC636C30483C2262F307036364BA
:10591C000121FFF7A1F801212C48FFF79DF8022384
:10592C002A4630461946FCF713FA2A46304601231C
:10593C000221FCF70DFA80232A4602214FF09040F9
:10594C00FCF706FA304602220121FFF713FB304622
:10595C0029460222FFF70EFB022207214FF090404E
:10596C00FFF708FB2A464FF4806302214FF090406A
:10597C00FCF7EEF92A464FF4007302214FF09040E9
:10598C00FCF7E6F92A464FF4807302214FF0904061
:10599C00FCF7DEF902220A214FF09040FFF7EAFAF9
:1059AC00022209214FF09040FFF7E4FA022208216D
:1059BC004FF09040BDE87040FFF7DCBA002C01407E
:1059CC000B00180000040048110014001200140011
:1059DC002DE9F04F764B40F2531281B01A60FEF76E
:1059EC00FFFF01210020FFF767F80120FFF722F8E5
:1059FC0001280446F9D11D210020FFF7ABF8214600
:105A0C000220FFF759F81920FFF714F80128044673
:105A1C00F9D10020FFF778F80020FFF785F8002077
:105A2C00FFF77AF82046FFF755F90220FFF7BAF88E
:105A3C00FFF7C0F802280446FAD100205D4DFFF7AD
:105A4C0049F9102700F0F4FC01214FF4A010FFF7E6
:105A5C0003F885F80B734FF40069C5F80090FFF755
:105A6C002DFF01215448FEF7F7FF544B54484FF6D5
:105A7C00FF784FF03B0AC3F82C800121C3F828A013
:105A8C00FEF7EAFF4F4B32214FF0770B3022D962F1
:105A9C00C3F828B085F813234FF400232B600121A1
:105AAC004948FEF7D9FF01214FF4C010FEF7D4FF8F
:105ABC002346002203214FF09040FCF749F90022C5
:105ACC001646202303214FF09040FCF741F985F84E
:105ADC000C634FF480532B6001213046FEF776FFA8
:105AEC0001213A48FEF7B8FF394B3A48C3F82C80ED
:105AFC00C3F828B01A6842F080021A600121FEF740
:105B0C00ABFF354B4FF4FA72DA62C3F828A085F874
:105B1C0015634FF400132B6001213048FEF79CFFF6
:105B2C0001212F48FEF798FF3B46324621462D486F
:105B3C00FCF70EF9012204212A48FFF71BFA012178
:105B4C004FF4A010FEF788FF274B40F68A121A601C
:105B5C0085F80B73C5F80090244BC3F82C809F621A
:105B6C001A6842F080021A601A6842F001021A6048
:105B7C0000F0B2FB01211448FEF76EFF012117481B
:105B8C00FEF76AFF32464FF4807301211548FCF78B
:105B9C00DFF83246202301211248FCF7D9F81148CE
:105BAC0032460823012101B0BDE8F04FFCF7D0B814
:105BBC000020024000E100E004001C000010004046
:105BCC0008001C00002000401100140012001800F6
:105BDC00004801401100180000440140120014005C
:105BEC0001001C0000040048440002400004004076
:105BFC00014B5863704700BF002C0140014B986368
:105C0C00704700BF002C0140014BD863704700BFA8
:105C1C00002C0140024A536943F001035361704761
:105C2C00002C0140024B0022DA625A62704700BF1E
:105C3C00000400400D4B58B14FF4807098620B4B30
:105C4C0061B120219962094B6AB908229A617047A7
:105C5C004FF480709861054B0029F2D12021996195
:105C6C00024B002AF1D008229A62704700040048C7
:105C7C0070B5374C374E384D204601220021FFF7C6
:105C8C0077FA204601220221FFF772FA2046012200
:105C9C000421FFF76DFA012220461146FFF768FA3E
:105CAC00204601220321FFF763FA20460122052139
:105CBC00FFF75EFA2068294A29492A4B40F0010077
:105CCC002060606C40F400406064606940F001004A
:105CDC006061106840F001001060506940F00100F4
:105CEC005061D06820F00100D060326842F00102AF
:105CFC0032600A6842F001020A604A6942F001020D
:105D0C004A611A6842F001021A605A6942F00102B3
:105D1C005A61DA6842F00102DA60FFF7BDFA2846F0
:105D2C0001220021FFF724FA2B680F4A43F00103EC
:105D3C0020212B6082F807138023136002F1C042EC
:105D4C0002F50C52136843F40043136070BD00BF9E
:105D5C00002C014000480140000400400044014078
:105D6C00001000400020004000E100E04FF09040A7
:105D7C0070B54FF48063044600220121FBF7E8FF65
:105D8C004FF48063A36220464FF40073002201217C
:105D9C00FBF7DEFF4FF40073A36220460E4D4FF469
:105DAC00807300220121FBF7D3FF02234FF4807292
:105DBC00A262284619460022FBF7CAFF2846012397
:105DCC0000220221FBF7C4FF20468023002202217F
:105DDC00BDE87040FBF7BCBF0004004870B51D4E19
:105DEC000223304600220121FBF7B2FF4FF0904016
:105DFC0002230446B36200224FF480630121FBF7B7
:105E0C00A7FF01234FF480621D4619463046A2625B
:105E1C000022FBF79DFF294620464FF40073002219
:105E2C00B562FBF795FF4FF40073A3622946204639
:105E3C0080230022FBF78CFF8023A36229464FF4BA
:105E4C00807320460022FBF783FF4FF48073A3621C
:105E5C0070BD00BF000400480138F8B5052844D8CF
:105E6C00DFE810F044008200F500C00029010600B4
:105E7C00C24E01231D464FF0904419463046002275
:105E8C00FBF766FF29464FF4007300222046B562EB
:105E9C00FBF75EFF4FF400732946A3622046802374
:105EAC000022FBF755FF8023A36100224FF480737F
:105EBC0029462046FBF74CFFB14B1A7D4FF48073FB
:105ECC00A362002A00F02A810223304619460022E0
:105EDC00FBF73EFF4FF48063002202214FF090400D
:105EEC00FBF736FFA74BA84A1A60F8BD4FF090405D
:105EFC000446802300220121FBF72AFF8023A362A2
:105F0C0020464FF48073002201219C4DFBF720FFAB
:105F1C0001234FF480721E461946A26228460022C5
:105F2C00FBF716FF4FF400730022AE61314620469A
:105F3C00FBF70EFF924B1A7D4FF40073A362002AFD
:105F4C0000F0FC800223284619460022FBF700FFD4
:105F5C004FF48063002202214FF09040FBF7F8FED3
:105F6C00884B8A4A1A60F8BD844D02234FF0904446
:105F7C001F46284600220121FBF7EAFE4FF48063FE
:105F8C00002201212046AF62FBF7E2FE01234FF411
:105F9C0080621E4619462846A2620022FBF7D8FEF4
:105FAC004FF400730022AE6131462046FBF7D0FE61
:105FBC00734B1A7D4FF40073A362002A00F0CE805D
:105FCC003946204680230022FBF7C2FE4FF4807333
:105FDC00002202214FF09040FBF7BAFE694B6C4A4D
:105FEC001A60F8BD4FF09040044680230022012136
:105FFC00FBF7AEFE8023A36220464FF48073002291
:10600C000121FBF7A5FE5D4D4FF48073A3620223C3
:10601C001E46284600220121FBF79AFE4FF48063AE
:10602C000022AE6120460121FBF792FE544B1A7DF3
:10603C004FF48063A362002A00F088803146284622
:10604C0001230022FBF784FE4FF4007382E74B4ED2
:10605C0001231D464FF09044194630460022FBF7B1
:10606C0077FE29464FF4007300222046B562FBF7F9
:10607C006FFE4FF40073A36202231F46294630467D
:10608C000022FBF765FE4FF480630022B7612946BE
:10609C002046FBF75DFE3A4B1A7D4FF48063A362FA
:1060AC00002A63D03946204680230022FBF750FE9D
:1060BC004FF4807310E7314D02234FF090441E468D
:1060CC00284600220121FBF743FE4FF48063002297
:1060DC0001212046AE62FBF73BFE4FF48063A362C6
:1060EC002046802300220121FBF732FE8023A3618E
:1060FC0000224FF4807320460121FBF729FE204B30
:10610C001A7D4FF48073A36282B131462846012375
:10611C000022FBF71DFE4FF4007359E702232946BA
:10612C003046FBF715FE0223B362D3E60123194672
:10613C002846FBF70DFE0123AB62ECE70223314648
:10614C002846FBF705FE0223AB6201E70123194643
:10615C002846FBF7FDFD0123AB6275E78023314632
:10616C002046FBF7F5FD8023A3622FE78023294609
:10617C002046FBF7EDFD8023A36299E7000400485D
:10618C00740700201C000140C5000040D5000040F1
:10619C00E500004070B51D4E02233046002201215F
:1061AC00FBF7D6FD4FF0904002230446B36100226A
:1061BC004FF480630121FBF7CBFD01234FF4806288
:1061CC001D4619463046A2620022FBF7C1FD294646
:1061DC0020464FF400730022B561FBF7B9FD4FF474
:1061EC000073A3622946204680230022FBF7B0FDF2
:1061FC008023A36129464FF4807320460022FBF7CD
:10620C00A7FD4FF48073A36270BD00BF000400486B
:10621C0070B5284C227D82B30223194600222648F1
:10622C00FBF796FD00224FF4806302214FF0904063
:10623C00FBF78EFD227D9AB30123002202211E481A
:10624C00FBF786FD4FF40073002202214FF09040C3
:10625C00FBF77EFD227D8023C2B1002202214FF08C
:10626C009040FBF775FD4FF48073002202214FF034
:10627C009040BDE87040FBF76BBD0F4D02232846E4
:10628C000121FBF765FD0223AB62CBE701214FF047
:10629C009040FBF75DFD4FF0904380229A62E2E75D
:1062AC00054D012319462846FBF752FD0123AB622D
:1062BC00C8E700BF7407002000040048054B1A68AB
:1062CC006FF300021A6058601A6842F001021A60FB
:1062DC00704700BF1C0002402DE9F041012188B03D
:1062EC003448DFF8E880344F344EFEF7B5FB01211B
:1062FC003348FEF7B1FB01214FF4A010FEF7ACFBC5
:10630C000024012540234046022201A901938DF867
:10631C000A208DF80B508DF809508DF80840FEF7C7
:10632C00DBFD224606214046FEF724FE3846FEF7EA
:10633C00E1FC03A8FEF70CFD312303A93846214AE2
:10634C00ADF816301027204B049203938DF81B40A8
:10635C008DF819508DF81A408DF818408DF81D40A5
:10636C008DF81C40ADF81470FEF7FEFC2346224657
:10637C0030464FF4E131FEF727FF29463046FEF751
:10638C005DFF29463046FEF75FFF29463046FEF793
:10639C0067FF29463046FEF75DFF29463046FEF77B
:1063AC0047FF224603210A20FEF704FE08B0BDE891
:1063BC00F08100BF0E0018001C00024000380140A4
:1063CC001200140094060020043801400004004818
:1063DC0014490B6843F001030B600A68114B9207D8
:1063EC00FBD55A686FF301025A601A4653680D497F
:1063FC00C3F38103002BF9D1F0B40A680A480B4CA3
:10640C0022F0867241F610774FF480164FF41F0578
:10641C0022F480320A604B60CF620E638D60846020
:10642C00F0BC70470010024000ED00E000100008C6
:10643C0038B5FEF7BFFB00282DD002280AD02A4819
:10644C002A4B2B495B682B4AC3F30313CB5CD84014
:10645C00106038BD25494C68CB6A002BC4F300444E
:10646C0025DACA6AC86ACB6AC2F30312C0F30820E1
:10647C0003F00703002C35D04D681B491E4C15F456
:10648C00003F08BF0C4680B29A40A0FB04010023D9
:10649C00FAF744FED4E7154B5A6D9105CFD51A6B1C
:1064AC00164B114812F0007F18BF1846C8E74B680E
:1064BC004868C0F34170C3F3834358B90F2B09D01C
:1064CC0002331CB1094A5268920307D50A4800FBF3
:1064DC0003F0B5E7013303EB0013F2E7024800FBCE
:1064EC0003F0ADE7044CCEE700127A000010024036
:1064FC00B0650008C403002000093D00006CDC02FC
:10650C0070B50E4B0E4CE41AA41000251E46A54285
:10651C0004D056F8253098470135F8E700F01EF8FE
:10652C00084C094BE41AA41000251E46A54204D0C1
:10653C0056F8253098470135F8E770BDC865000856
:10654C00C8650008CC650008C8650008024403460D
:10655C00934202D003F8011BFAE77047F8B500BF6D
:10656C00F8BC08BC9E467047F8B500BFF8BC08BC28
:04657C009E46704780
:10658000191B12131D1516171A090A0B1E0D0E0FD3
:1065900000000000000000000102030406070809D3
:1065A000000000000102030402040608020C0810A7
:1065B00000000000000000000102030406070809B3
:0865C00098ABFF7F0100000011
:0465C800F1100008C6
:0465CC00CD100008E6
:1065D000007C0008871387133C007800C800D007B0
:1065E0004C046C07DC0564004A013C00900100008B
:1065F000000000009001000000000000E80300001F
:10660000000000000000000000000000000000008A
:10661000204E0000A0860100020610011400460072
:10662000DC05010501010100D430000005010A006C
:10663000E803000010270000000000000A0000002E
:1066400000000000640000000000000000000000E6
:1066500000000000000000001027000050C30000F0
:10666000B400D007D0070000B400B700BA00BD00E6
:10667000C100C400C700CA00CD00D000D300D600BE
:10668000D900DC00E000E300E600E900EC00EF00E8
:10669000F200F500F700FA00FD0000010301060119
:1066A00009010B010E0111011301160119011B0152
:1066B0001E0120012301250128012A012C012F019F
:1066C00031013301350138013A013C013E014001FD
:1066D000420144014601470149014B014D014E0170
:1066E00050015101530154015601570158015A01FB
:1066F0005B015C015D015E015F016001610162019E
:10670000630163016401650165016601660167015A
:106710006701670168016801680168016801680133
:106720006801680168016701670167016601660128
:10673000650165016401630163016201610160013A
:106740005F015E015D015C015B015A015801570167
:10675000560154015301510150014E014D014B01AD
:106760004901470146014401420140013E013C010B
:106770003A0138013501330131012F012C012A0181
:1067800028012501230120011E011B011901160109
:10679000130111010E010B010901060103010001A2
:1067A000FD00FA00F700F500F200EF00EC00E90050
:1067B000E600E300E000DC00D900D600D300D00002
:1067C000CD00CA00C700C400C100BD00BA00B700B8
:1067D000B400B100AE00AB00A700A400A1009E0071
:1067E0009B009800950092008F008C008800850027
:1067F00082007F007C0079007600730071006E00DB
:106800006B006800650062005F005D005A00570081
:10681000550052004F004D004A004800450043001B
:1068200040003E003C0039003700350033003000A6
:106830002E002C002A00280026002400220021001F
:106840001F001D001B001A0018001700150014007F
:106850001200110010000E000D000C000B000A00C9
:1068600009000800070006000500050004000300F9
:10687000030002000200010001000100000000000E
:106880000000000000000000000000000000010007
:1068900001000100020002000300030004000500E3
:1068A000050006000700080009000A000B000C00A4
:1068B0000D000E001000110012001400150017004A
:1068C00018001A001B001D001F00210022002400D8
:1068D000260028002A002C002E003000330035004E
:1068E000370039003C003E004000430045004800AE
:1068F0004A004D004F005200550057005A005D00FD
:106900005F006200650068006B006E00710073003C
:10691000760079007C007F008200850088008C0072
:106920008F009200950098009B009E00A100A4009B
:10693000A700AB00AE00B1003C001E0303006419C9
:106940000000000001000000000000003200000014
:106950000000000000000000000000000000000037
:106960001027000050C3000002003C006E00D0075A
:1069700064000500E8030614013278004B000100B2
:106980005A005A001E000201FA000000204E2000AA
:0869900050C3110700127A0048
:107BE00045585541565F4C494748544E494E475FAA
:107BF0003730415F463432310000000000000000A1
:040000050800473573
:00000001FF
